:020000040800F2
:10000000F0FF0120118A0508798A050825CF00082C
:10001000798A0508798A0508798A050800000000B0
:10002000000000000000000000000000798A0508C0
:10003000798A050800000000798A050825B30008C0
:10004000798A0508798A0508798A0508798A050870
:10005000798A0508798A0508FD8200080583000869
:100060000D830008158300081D830008F180000837
:1000700005810008198100082D81000841810008D0
:100080005581000869810008798A0508798A050880
:10009000E5ED04082DCB0008798A050825830008C2
:1000A000959B0008A99A0008A59B0008999A00084A
:1000B000D19A0008E19A0008F19A0008917F00089F
:1000C0008D7F0008997F0008957F0008798A0508D0
:1000D000798A050885AB040891AB04089DAB040838
:1000E0002D830008798A0508798A0508798A050828
:1000F000859B0008798A0508759B0008798A0508A0
:10010000798A0508798A0508019B0008798A05081B
:10011000A9AB0408B5AB0408119B000889FD0408CD
:1001200091810008A5810008B9810008CD810008EF
:10013000E1810008798A0508798A0508798A050825
:10014000798A0508798A0508798A0508798A05086F
:10015000798A0508798A0508798A0508798A05085F
:10016000798A0508798A0508798A0508798A05084F
:10017000798A0508798A0508798A0508798A05083F
:10018000B59B0008798A0508A97F0008A57F0008AB
:10019000798A05080000000035CB0008798A050837
:1001A0003DCB0008798A0508798A0508C1AB0408A7
:1001B000A17F00089D7F0008798A0508798A0508D3
:1001C0007D810008F5810008098200081D82000871
:0801D000798A0508798A050807
:0801D800C87D050001000000D4
:10600000074BD0F8CC105B68D0F8D8205B1A9A42C6
:10601000B8BFC0F8D830012380F8043100207047A1
:10602000001000E0027A0B4B0168134410B413F81F
:10603000013CCC5824F00104CC50CA181368DB078B
:10604000FCD4027D5DF8044B0223934043F00C0323
:106050004B607047984306084368C26C10B49A615D
:10606000EFF31182502383F312884168046C0B68AC
:1060700023EA0403846C2343D2B20B6082F31188B9
:10608000436981681A68096822F001021A60D0E940
:1060900008421C605A60D0E90A429C60DA60B0F89D
:1060A0006420CA6200235DF8044B0377704700BF89
:1060B000002A4FEA014C30B503460ABFE6468E4639
:1060C0008C4600F1C005002419689A6841EA0C0169
:1060D00042EA0E029A60C3E900140C33AB42F3D1DA
:1060E000D0F8C030C0F8C44043EA0E03C0F8C03056
:1060F000C0F8C84030BD00BFC3695969B3F810C0CB
:106100000A6830B49C6822F0010224680A60E268E0
:1061100022EA0C02E260046890F814C020680822A9
:1061200002FA0CF202403AD123480578022000FA24
:106130000CF06060002D30D0187F012830D0D3F8EB
:10614000D8200132C3F8D820EFF31181502282F316
:10615000128858681C6C026822EA04025C6C2243B4
:10616000C9B2026081F31188D3E90C405A69996879
:10617000096814605060D3E90E409460D060012437
:10618000B3F89C00C8621C7710682043106083F845
:10619000D540CA681B8A1343CB6030BC7047FEE70A
:1061A00083F8D520D3F8DC000A68013022F0010220
:1061B000C3F8DC000A60F0E7381A002010B40C4C79
:1061C0006368002B11DD002004F1080C0146DCF8A7
:1061D000943003F1C00259600C339342FBD16368E1
:1061E000013083420CF1E40CF1DC5DF8044B7047A4
:1061F000381A0020704700BF024B03EB401393F89E
:10620000B5037047381A0020F8B5C3693F4C04EB5A
:1062100083030422D3F8B804066C436C3168076822
:1062200003F01F039A4011423D681AD015F0040F85
:1062300017D03B689B0603D43B6823F004033B6004
:10624000036B726003B19847B4F8D8340C2B40D874
:10625000DFE803F0463F3F3F543F3F3F393F3F3F7A
:106260004D0002229A40114215D015F0020F12D0B3
:106270003B68990606D43B6823F00A033B60012380
:1062800080F82530C36A7260002180F82410002B4A
:10629000DAD09847D8E708229A400A42D4D02A0791
:1062A000D2D53A6822F00E023A60012202FA03F3D4
:1062B0007360436BC263002180F8241080F82520AE
:1062C000002BC0D1C0E7D4F89824D36823F400632E
:1062D000D3600122002384F8D52484F8DA34F8BD91
:1062E000D4F89824D36823F40073D360F1E7D4F88A
:1062F0009824D36823F48053D360EAE7D4F8982431
:10630000D36823F48063D360E3E700BF381A00202A
:10631000426A806A131A58425841704790F84F38C1
:1063200030B53BB990F84D1890F84E380124DAB2E8
:10633000914200D830BDB0F8565804FA03F22A430F
:10634000A0F856280133F2E70379024613F0010062
:1063500005D0D369D068116A01385B1A18407047BC
:1063600010B50379DB07044601D4002010BDFFF708
:10637000EBFF0028F9D0236A6269D05C236AE268E7
:106380000133B3FBF2F102FB1133C0B22362EDE73C
:1063900003799B070AD5436A8269D154436A02692B
:1063A0000133B3FBF2F102FB1133436270477047D4
:1063B000017170470379024613F0020007D0536A57
:1063C0001069916A01385B1A0340DBB2C01A70474A
:1063D0003D4BD3F804358BB93C4A4FF4A8700223E7
:1063E0002A214010C2F8EC04C2F8DC34C2F8E034D0
:1063F000C2F8E434C2F8E814012070473449334A43
:10640000A1FB03139B0C10B4A3F108010324C2F8F1
:10641000DC44132927D8DFE801F046262626262665
:10642000262646262626262626264626310A294BB5
:10643000294903EB40031B8A5B00A3F5AB7381FB87
:106440000301DB17C3EBA1035B00263303EBC3009F
:1064500003210224B0F50C7FC2F8E044C2F8E41432
:10646000C2F8E83403DB00205DF8044B70474010AD
:10647000C2F8EC045DF8044B01207047154B174936
:1064800003EB40031B895B00A3F5A97381FB0301A8
:10649000DB17C3EBE1035B001A3303EB430003EBB1
:1064A00080000221D5E70B4C34F810004000C3F304
:1064B000C401B0F5A87344BF6FF4A073C3181B11D7
:1064C0005B002A33D800C4E700200040381A0020BF
:1064D00083DE1B4360BC0508398EE3384FECC44EA5
:1064E0002DE9F04FDFF8E0B000EB400A0BEBCA0AF1
:1064F0000446DAF8F0542F6D4FEA4009F80787B0E8
:106500000ED47B0709D5A1440BEBC90B04232B65E3
:10651000DBF800350133CBF8003507B0BDE8F08F6C
:1065200001232B65D5F890301907EAD0254E4FF49A
:106530005473CDE9024703FB04664F46D5F890300B
:10654000C3F3012909EBC90206EBC20356F8320076
:106550005A689968D3F80CE010F08048C2F30342FF
:1065600014BF20F06040C0F38A40082A134628BFB9
:1065700008239AB100240DF10F0C2246019502F078
:106580000302032C8CBF75460D46D2000134D54062
:10659000E2B293420CF8015FF1D8019DDAF8FC44B5
:1065A000C5F894902CB1B8F1000118BF012104AADC
:1065B000A047D5F890301A07C0D1B946029C039F76
:1065C0009FE700BFB0A40040381A002010B58446F1
:1065D0004FEA810E102312F4004F14BF0E2407243B
:1065E0005200013BCCF8004092B2F444F3D100EBEE
:1065F00081128C01035142F82130122010BD00BFDE
:1066000010B584464FEA810E0424130B03EB4303B9
:1066100018331201013CCCF8003092B2F444F4D1AA
:1066200000EB01130A01845043F82140062010BDFD
:10663000704700BF704700BF034B00EB400003EB07
:10664000C00393F849057047381A0020064B93F8A9
:10665000F825824283BF00EB400003EBC003D3F870
:106660004C050020704700BF381A00200B4890F8F6
:10667000F91589B101EB4101002310B4490000F57F
:10668000A7601C4650F82320063302B114608B42E9
:10669000F8D15DF8044B7047704700BF381A0020EE
:1066A0000B4890F8F91589B101EB4101002310B4B2
:1066B000490000F5A7601C4650F82320063302B1BC
:1066C00014608B42F8D15DF8044B7047704700BFEF
:1066D000381A0020204B1B78002B3CD12DE9F041CB
:1066E0001E4C94F8F925A2B31D4E04F5A76250275D
:1066F0004FF02C0E1D4607E094F8F91552F8180BD0
:1067000001338B42056024DA117C0029F4D05168F2
:10671000880AA0F5801006EB000854284FF0FE0C04
:1067200098BF98F818C0EFF3118087F31288D1F85A
:1067300024800EFB0C4C08F10108CCF82486D1F81B
:1067400014C04CF0010CC0B2C1F814C080F3118821
:10675000D2E7BDE8F081704700000020381A002021
:1067600060BC050800EE100AB8EE400A704700BF92
:10677000BCEEC00A10EE103A98B2704707280AD84B
:10678000064B4FF49A7202FB0033B3F83808B0FAA4
:1067900080F0400970470020704700BF381A002081
:1067A000072807D8044B4FF49A7202FB00330122EA
:1067B00083F83A28704700BF381A0020072808D805
:1067C000044B03EB401393F8B42312B1012283F876
:1067D0009A237047381A0020072808D8054B03EB86
:1067E0004013B3F89803B0FA80F0400970470020D6
:1067F000704700BF381A0020054B93F8F8258242F5
:1068000086BF03EB4013D3F8A4030020704700BFFA
:10681000381A002030B5114D95F8E040E4B105F18B
:10682000E80C4FF0000E05E00EF1010EA6450CF14C
:10683000100C0FD0BCF808009042F5D19CF80A006B
:106840009842F1D105EB0E15D5E93A230120C1E9B3
:10685000002330BD002030BD204630BD302B00204D
:1068600070B5104E96F8E040DCB1B1F816E006F1D4
:10687000E803002204E00132A24203F1100310D029
:10688000B3F808C0F445F6D19D7A91F818C0654573
:10689000F1D106EB0216D6F8F43013B1BDE8704022
:1068A000184770BD302B002070B5154C94F868C1A6
:1068B00094F869610CF1010505F01F05AE421DD089
:1068C0005FFA8CFC04EB0C16082B9E4628BF4FF099
:1068D000080EC6F86C0186F8791186F878E15BB18C
:1068E000013A06F26F1100230133DBB212F8010FF7
:1068F00001F8010F9E45F7D884F8685170BD00BFBC
:10690000302B00200E2809D8DFE800F015151515EA
:1069100015151515150A0C0E10121400402070479D
:106920000C207047102070471420704718207047C3
:1069300020207047302070472DE9F043456A35B973
:106940004162BDE8F083CEF800100B60F9E74E68B5
:1069500026F0604CC6F38A47C6F3807817EA26070C
:1069600038BF6746AE462B465C6894EA060F24F0B3
:1069700060420CD5002C1EDA920CBA4201D0BA4209
:106980000FD99D42DFD10D60DAE71346ECE794455D
:1069900005D104F08049C4F38074444507D194457F
:1069A000EFD31A689E46002AEFD11960C9E7B9F102
:1069B000000FF6D0E5E7BA42F3D0E0E701234377D2
:1069C0000020704708B503468269006BD96A02440B
:1069D0009A6101B18847002008BD00BF436A1B6867
:1069E0001B6A5B685B78024613F0010008BF5077B2
:1069F000704700BFC2628161704700BF704700BF2F
:106A0000043070470C4B93F87023D3F86C13024496
:106A1000D2B283F8702393F8702301441206C3F8AE
:106A20006C1305D593F8702382F0800283F87023ED
:106A3000024B01225A707047302B002000000020CA
:106A40002DE9F047154FD7F87453ED0A20D00026F2
:106A5000B14607F56B787419D7F878331048D3F836
:106A600028A0C7F8A49304EBD47464101023424602
:106A7000E102D0470F280BDD0A4B03F1100153F858
:106A8000042B013207D18B42F9D12546B542E2DC15
:106A9000E802BDE8F087661CF8E700BF302B002055
:106AA000A82E0020DC2E0020194BD3F8BC13D3F8FD
:106AB000C0238A1A322A05DCD3F8D4238A1A002A82
:106AC00011DC7047D3F8C41349B193F8D0238888F8
:106AD000096802F00102120100FA02F28A61002242
:106AE000C3F8D4237047D3F8C4236AB110689288DE
:106AF00010B44469224218BF120432315DF8044BCD
:106B00008261C3F8D41370473231C3F8D41370478D
:106B1000302B0020074AD2F8C4334BB192F8D0236F
:106B20009988186802F00102130101FA03F38361E6
:106B300000207047302B0020044B4FF40070D3F836
:106B4000E033108000200B60704700BF302B002026
:106B500000207047012070470120704700207047D7
:106B6000164AD0F8C8305268D0F8C01010B50446A4
:106B700073B1501A83420BDC94F8B830C4F8C020CB
:106B8000012B10D0D4F8BC300133C4F8BC3010BD98
:106B9000D4F8CC30C4F8C0200B44C4F8C43094F806
:106BA000B830012BEED104F1D001201D42F0D6FF08
:106BB000D4F8BC300133C4F8BC3010BD001000E084
:106BC000CB070DD470B590F82830C468012B8CB079
:106BD00007D0B4F1807F01D9012303770CB070BDD9
:106BE00070471B4A1B4BD2F810545B68466AB5EBE2
:106BF000530F4FEA530228D20721022352085B00A9
:106C000095429BB201D20139F8D1B4F1807FB380B3
:106C1000E4D9012201A9002302770291B72402A935
:106C20003046CDE903328DF814208DF82820CDE9C7
:106C30000633CDE908338DF804400B9342F08EFF04
:106C40003268136A002BFCD1C8E70223DDE700BFDE
:106C5000302B00200000002030B590F82830012BA8
:106C60008BB0044608D0407F10B901200BB030BD76
:106C7000002363770BB030BD456A2B681A7B2ABBB3
:106C8000637F002BF1D01449009114490191022136
:106C9000002301220291284669468DF80C208DF8C8
:106CA0002020CDE90433CDE90633099342F056FFA5
:106CB0002A68136A002BFCD1094B93F81534D8438A
:106CC00003F0010300F001006377D3E71B6A002B98
:106CD000D6D00020CAE700BF08000020442F0020C3
:106CE000302B002030B504468BB094F82830012BAF
:106CF00008D0637F0BB10023637701200BB030BD58
:106D00001B6A23B1656A2B681A7B002AF8D1637F5E
:106D1000002BF2D01049009110490191022100236B
:106D200001220291284669468DF80C208DF820201A
:106D3000CDE90433CDE90633099342F00FFF2A6809
:106D4000136A002BFCD1064B93F8153403F00102B3
:106D5000DB076277D1D5C8E708000020442F002068
:106D6000302B002030B5204A204B95B004462048F7
:106D70000493CDE900200023151D083ACDE90A232C
:106D8000CDE90E331B480990626A207F0595069372
:106D9000109313931193012312688DF80C30022580
:106DA00007938DF820308DF834308DF84830031D6E
:106DB00002950C93136A002BFCD198B10E4B0A0E6E
:106DC0005A730E330A0A080C5A7099701870606A68
:106DD000694642F0C3FE636A1A68136A002BFCD14D
:106DE00015B030BD054BEDE714000020DD6900084B
:106DF000482F0020BD690008000000200D00002081
:106E000010B5044694B050220749684654F062FB1E
:106E1000606A694642F0A2FE636A1A68136A002B30
:106E2000FCD114B010BD00BFD0BC0508F8B50546B4
:106E3000406A0068046A002CFCD12C7FA869002CF1
:106E400036D0244C060E6677052704F11E06B07076
:106E50004FEA104C000A86F800C070700868676539
:106E600016682066012B4FF00000A6662E63A0670F
:106E700023D0022B1BD1536820674A6862671E44E7
:106E8000154A84F86C000121E3672E6384F88010B2
:106E9000C4F88420114B6A7F686AA3F11401002AA8
:106EA00008BF194642F05AFEEB6A6BB1286BF8BD79
:106EB0000B4E0427A6F11D04C9E7074A84F86C307D
:106EC000C4E91C20E067E5E76B6A1A68136A002BC7
:106ED000FCD1EBE700000020C56900083800002065
:106EE0001D00002000B583B081610192049A0093D7
:106EF000C26201236A4601A9FFF798FF03B05DF85B
:106F000004FB00BFF0B50746406A066895B01D4611
:106F1000346A002CFCD1CDE90944CDE90E44CDE919
:106F2000104406948DF820401394304C0B9204F1D9
:106F3000A40300932E4B01930223029301232D4AB5
:106F40008DF80C308DF834308DF848303B7F04924A
:106F500004F19C0205921A1D0C950792002B3ED05D
:106F60000B0E84F89D3004F19E03234E6268D6F820
:106F700010C49970080C090A59701870BCEB520FB4
:106F8000786A4FEA52012DD20723022249085200A3
:106F90008C4592B201D2013BF8D17B7F8280E3B174
:106FA000694642F0DBFD786A03681A6A002AFCD160
:106FB0006268D6F82034B3EB520F4FEA520113D275
:106FC00007240222490852008B4292B201D2013CAE
:106FD000F8D18280284615B0F0BD05A9E1E704F19B
:106FE0009D03C2E70222D8E70222F2E70000002058
:106FF0004C2F0020DD690008302B0020F0B583699C
:1070000093F8C420012A8BB0054633D0023A012AF6
:107010002DD893F83421D96F234C62F07F030B7085
:107020008669D6F880305F1C0FCCEC46ACE80F00C8
:10703000F36FCDE900370FCCACE80F0094E8030004
:107040008CE80300694606F1100042F087FDA9694B
:107050000A69136A002BFCD1D1F880305A8852BAE1
:10706000EA819A8852BA2A82DB885BBA6B82012055
:107070000BB0F0BD93F8342193F83701D3F88010AA
:10708000131A5B100133DBB201EB430231F813300A
:107090005BBAEB8153885BBA2B82938801205BBA81
:1070A0006B820BB0F0BD00BF20BD0508F0B590F8B5
:1070B000C430D0F88060012B8BB0044648D032D960
:1070C000023B012B2CD890F83531C26F4F4D63F045
:1070D0007F031370D0F880305F1C0FCDEC46ACE816
:1070E0000F00E36FCDE900370FCDACE80F0095E856
:1070F00003008CE80300694604F1100042F02EFD05
:107100002269136A002BFCD173885BBAA4F8B030F3
:10711000B3885BBAA4F8B230F3885BBAA4F8B43091
:1071200001200BB0F0BDC36F4FF0FF321A605A6000
:107130009A60DA60D0F8C8300522B3F57A7FC0F8DB
:10714000D82038D8032380F8C43001200BB0F0BD1C
:1071500090F8371190F8353190F83621D0ED2E6A3D
:10716000D0ED2F7A5B1A5B100133DBB2521A36F87E
:10717000131006EB430349BAA0F8B010598849BA76
:10718000A0F8B2109B8852100132D2B25BBAA0F8BC
:10719000B43036F81230DBBA07EE103AB8EEC77AE0
:1071A000E7EE267AFDEEE77A17EE903AA0F8B630D1
:1071B00001200BB0F0BD03691A7B1AB35B690BB3F6
:1071C00090F87830F3B190F83731C26FC4F884008A
:1071D00063F07F03137090F8371190F83531D0F8D1
:1071E00080200B48C4F8EC005B1A07330121C4F877
:1071F000E430E36F84F8E8100A44C4E9373284F8D5
:10720000C4108DE7022384F8C43089E720BD050847
:1072100001600008F8B50C4B1D685A69154005401F
:107220005D617DB1094F0126B5FA85F4C4F11F04F3
:1072300007EB840306FA04F4D3F8240403689847A0
:10724000A543F1D1F8BD00BF00040140302B002060
:107250002DE9F8430269C36812EA030828D00546FD
:107260000E464FF00047B8FA88F327FA03F2D243EC
:107270001B3B2A6108EA0208042B16D8DFE803F05A
:107280003B30251A0300B36A002B3FD003F1FF39CE
:1072900000231FFA89F9B362746A34B12368204667
:1072A000494698476468002CF8D1B8F1000FDAD14C
:1072B000BDE8F88370680028F7D0696B036889B26D
:1072C0009847B8F1000FCED1F2E7B0680028ECD0B3
:1072D000A96B036889B29847B8F1000FC3D1E7E7FB
:1072E000F0680028E1D0E96B036889B29847B8F1EB
:1072F000000FB8D1DCE730690028D6D0296C0368CC
:1073000089B29847B8F1000FADD1D1E7EB6A1FFA07
:1073100083F9C1E72DE9F0470768D7E90415D7F8E5
:107320000480E8610A7D0E682C68022303FA02F2E9
:1073300042F00C0272602A7D934043F00C036360BC
:10734000097A194BBA69581810F8019C56F809C007
:107350002CF0010C46F809C095F808A053443046BB
:1073600013F8015C635923F001036351635943F03F
:10737000020363514EF0ECFBFA69514620464EF091
:10738000E7FB56F8093043F0010346F8093063592A
:1073900043F001036351D8F8043043F00303C8F805
:1073A0000430BDE8F08700BF98430608F8B5314DBA
:1073B00005EB401393F8B43303B9F8BD2E4B93F8A3
:1073C00064E493F8652496454FEA40140CD002EB30
:1073D000420C03EBCC0C9CF86864771E012F4FEA3B
:1073E000420C3AD9032E33D0244B2C4403EB4010EB
:1073F000A4F8981313F018FE2B78D4F8B023D4F81F
:107400009C138BB1D2F8943001248C4003F1C0015D
:10741000420010F4004F90B202D15A6822435A60E1
:107420000C338B42F4D1F8BDD2F89430012401F131
:107430001002944003F1C001420010F4004F90B2DA
:1074400002D15A6822435A600C338B42F4D1F8BD02
:10745000561C06F003067645C6D0944403EBCC03D5
:10746000034493F875140029BED02B19012283F828
:107470009A23B9E7381A0020302B0020D01D0020B5
:1074800070B5384C4FF49A7303FB004393F84738B8
:1074900003B970BD344D95F864C495F865349C45C6
:1074A0000ED003EB430205EBC20292F868E40EF142
:1074B000FF36012E4FEA430231D9BEF1030F29D026
:1074C0004FF49A7303FB00F0284B04441844A4F8CB
:1074D000381813F0A9FD95F8CC14D5F8C834024635
:1074E00069BB0121D4F868099847D4F86459B4F805
:1074F0004438D4F86029B5F8B41019435368A5F896
:10750000B4106FF30F0303435360136843F0010398
:10751000136070BD5E1C06F003066645D0D01A44A9
:1075200005EBC202024492F875140029C8D04FF44A
:107530009A7303FB0043012283F83A28C0E7D4F88A
:107540004018D4F864094979D0F8B00001F0FC0182
:10755000084404219847D4F864398000A3F8AC00AB
:1075600070BD00BF381A0020302B00207022002090
:1075700086E700BF10B5044652F0CCFC81B220462D
:10758000BDE8104012E700BF10B5044652F0C2FC3F
:1075900081B22046BDE8104072E700BF38B50B4D00
:1075A00000EB400005F5A76303EBC00393ED027AFF
:1075B000D3ED037AE7EE007AC4002544B0EE670A03
:1075C00052F0A8FCD5F83835186038BD381A0020BC
:1075D00070B5274C94F8642494F865349A4242D1EB
:1075E00094F8902A5AB302EB4201224B94F8CC044F
:1075F000C2EBC10C03EBCC0CD4F8D02408B31E4D65
:107600001E4C40F20D3E00E01A68D3F8A810B3F803
:10761000AC004E682E4030434860086840F00100DE
:107620000860D2F8DC13214041EA0E01C2F8DC13F5
:10763000D168B83341F480716345D160E4D170BD45
:107640001A6811689C8821F080011160D462506230
:10765000B3F8B410D468B83321436345D16023F83C
:10766000040CEDD170BD4FF09DFF0028B8D170BD66
:10767000302B0020003000200000FFFFE0E0FFFF83
:10768000F8B5A0F668042379DB0725D5657994F869
:107690004C3805F001073D46FBB1D4F848341A6870
:1076A000D36A5B08536294F8503823B1B4F85A385F
:1076B0000133A4F85A38606C85F001014BF008FAE8
:1076C000012384F84F38002384F84D3884F84E386D
:1076D000A4F8563884F84C38F8BD94F84F68012E59
:1076E00004BF94F84D3884F84E382046FEF716FE55
:1076F0004EB9012384F84F3887EA0301606CBDE876
:10770000F8404BF0E5B9002384F84F383946F5E7E7
:1077100070B5094C05460726013E00D170BD94F9AD
:10772000000017F081FC031E04DBEA1861789171F8
:10773000A278EA540434EFE748BD05082DE9F84380
:10774000DDF820800F4615460021202204461E4603
:1077500053F01EFFB8F1000F0CD0D8F80030E381D1
:107760001B0C2382D8F80430B8F80A20E3821B0CE3
:1077700062822383384650F063FCEB0619D4431E23
:10778000B8B107EB000C01E0013B12D31CF801ED8E
:10779000BEF12E0FF8D1C01A421E032AA8BF032241
:1077A000082B03F10109A8BF08239046B9441A46E3
:1077B00006E008280246B946A8BF08224FF0000894
:1077C0004FF02033394623606360204653F082FE39
:1077D00004F10800154B238142464946837053F05B
:1077E00079FE611EE21D11F801CFACF16103192B86
:1077F0009CBFACF1200C81F800C09142F3D104F1A0
:107800000A0011F8013FA3F16102192A9CBF203B35
:107810000B708142F5D118232373330CA382E572D8
:10782000099B6683E361BDE8F88300BF2020200048
:107830002DE9F04FDFF844B4DBF8BC0385B0CBF89A
:10784000C003002B5ED013440C46174601F5FE7AA8
:1078500099461DE0002F62D0DBF8EC33BB4200F00C
:10786000C480DBF8E833BB4200F0F680DBE9FC3192
:10787000BB424BD8B94200F26E81791A20464BF0D8
:107880009BF801374F4504F500740AF5007A39D0AA
:10789000DBF8F833BB42DDD8DBF80854FB1A296B60
:1078A000DA0802328A4203F0070602D3AB6B9A422F
:1078B0000BD92946104602924BF04EF8029A054623
:1078C000002800F06881CBF808042B79002B40F0E9
:1078D0001C81D5F82880B8F1000F00F055812B6B82
:1078E000D21AEB6806EBC20203EB422220462B467B
:1078F0004FF400710137C0474F4504F500740AF595
:10790000007AC5D1002005B0BDE8F08FB942B4D9E6
:107910004FF400720021204653F03AFEB1E74FF4D5
:1079200000723946204653F033FE802384F8BE317E
:107930000C2384F8C231DBF8E813C44ADBF8E033E7
:10794000C4F8C6119142C4F8CA3100F30981C04A93
:10795000C04D82FB010285FB01050A44C817C0EB3C
:107960006212C0EB2530BC4D84F8C10185FB026575
:10797000C2EB82168010891B013120F03F001544B4
:107980000843D117C1EBE5110A4484F8BF21AF4A7F
:1079900084F8C001013B934200F3EE80AC4AAD484D
:1079A00082FB031280FB03101A44D917C1EB621249
:1079B000C1EB2031A84884F8C51180FB0250C2EB0E
:1079C000821589105B1B013321F03F0110441943DC
:1079D000D317C3EBE0131A4484F8C41184F8C3210D
:1079E0004AF65523A4F8FE314BE74FF0FF3384F8F5
:1079F000EC3184F8ED3184F8EE3184F8EF31522324
:107A0000237063706123A37084F8E7314123E3702E
:107A100084F8E6317223002584F8E43184F8E531F6
:107A2000DBF80034C4F8E8314FF4F0722946201D29
:107A300053F0AEFD552384F8FE316FF05503C4F8C2
:107A4000F051C4F8F451C4F8F85184F8FC5184F8AA
:107A5000FD5184F8FF3114E74FF4007200212046F5
:107A600053F096FD7D4B03CB45F6EB03238090232B
:107A70000222C4F80710A3700821F823C4F80300F9
:107A8000617322746375DBF8E0332273A27384F8A8
:107A90002C20DBF8E8239B1A2362DBE9FC239B1AEA
:107AA00063620023E372E3736377A377E37784F879
:107AB0002D3084F82E3084F82F3084F83130684B24
:107AC000A361684BC4F842303E232377012384F836
:107AD0003030654A802384F8403084F846104AF6F6
:107AE0005521A4F8FE1103CA604BC4F84700C4F83E
:107AF0004B1003CB1388A4F84F309378C4F852008E
:107B0000C4F8561084F85130BBE64FF400720021DF
:107B1000204653F03DFD002E44D12B6C04F120088B
:107B2000002B7BD02B6B52491122CDE900662046F9
:107B3000FFF704FE2B6C1A6C002A7ED01B6B4D499C
:107B4000CDE9006640461122FFF7F8FD04F1400838
:107B50004FF4E0736DE0F91A20464AF02DFF90E6ED
:107B6000FF2284F8C1214FF6FF72A4F8BF21374AE3
:107B7000013B93427FF712AFFF2384F8C5314FF6E4
:107B8000FF73A4F8C3312BE741464FF4007220463F
:107B900053F0FEFC75E6384A231F43F8042F9A453C
:107BA000FBD16EE6D5E910253301002A43D0023B14
:107BB000002D3FF466AE013BAD6CF9D1A0464FF409
:107BC0000073002D3FF45DAECDE9027A08EB0306A9
:107BD000A24608E00024CDE900C4FFF7AFFDAD6C7C
:107BE000BDB1B04515D02C7929682B6B404605F105
:107BF0001C0C112208F12008002CEBD16A792C69A9
:107C000042F02102CDE900C4FFF798FDAD6C002DD4
:107C1000E7D15446029FDDF80CA032E6CDE90066BC
:107C20003346DBF8E41308222046FFF787FD4FF4C4
:107C3000F0736D6CC5E7013BBAE7CDE900660D490D
:107C4000334640461122FFF779FD7FE7FF03FB0033
:107C5000832008829755454181808080D442060860
:107C60003F00FF0029940E0DE0420608EC42060892
:107C7000CC420608D0420608DEADBEEF302B002015
:107C800048B182880449B2FA82F208684FF0004392
:107C9000D34003430B60704700040140002070474D
:107CA000704700BF036823F0020382B003600368DB
:107CB00023F004030360036823F0400303600368B8
:107CC00023F020030360036823F0100303600368BC
:107CD00023F08003036083699B0603D5C36943F0E7
:107CE0002003C36183699A0744BF002383628369C9
:107CF000DB0758BF01234FF0000258BF8361426089
:107D0000036823F0010303600192019B3F2B06DC13
:107D100000BF019B01330193019B3F2BF8DD0368FA
:107D2000084A43F0010303604FF0010C002381F87F
:107D300000C04B70B2F8923A63449BB2A2F8923AF8
:107D400002B07047302B002070B42C216B4C00FB2C
:107D500001F162180346D2F8942A50680268D506E9
:107D60000BD58269D20608D5C369214443F01003BC
:107D700070BCC36101F6AC2194E7026896071AD57E
:107D80008269950717D52C2202FB034292F8B11A9B
:107D900021B192F8B01A002940F091802C2202FB08
:107DA000034393F8B03A002B40F08780036823F038
:107DB0000203036081E00268510724D4026856067A
:107DC0003AD58269550637D52C2202FB034393F836
:107DD000B22A002A71D093F8AE1A494C93F8B02A0F
:107DE000436823400B4343EA024343F0024343F416
:107DF00010534360036823F002030360036843F0F9
:107E00000403036059E082695207D7D52C2202FB94
:107E1000034292F8B21A19B192F8B01A00295DD152
:107E20002C2202FB034393F8B03A002B45D10368A0
:107E300023F00403036040E00268910625D58269BF
:107E4000920622D5C26942F02002C261026822F085
:107E500002020260026822F004020260026822F05C
:107E600040020260026822F020020260026822F0F2
:107E70001002026002682C2101FB034322F0800201
:107E80000021026083F8AD1A17E0036823F00203B3
:107E90000360036823F004030360036823F04003D6
:107EA0000360036823F020030360036823F01003DA
:107EB0000360036823F08003036070BC7047D2F84E
:107EC000B41A4D1CC2F8B45A0978C9B2816292F84A
:107ED000B01A0139C9B282F8B01A5FE7416AD2F824
:107EE000B85AC9B26E1CC2F8B86A297092F8B01AB2
:107EF0000139C9B282F8B01A92E700BF302B0020D6
:107F0000008000FC10B41F4C2C2303FB00430146EF
:107F1000D3F8942A5068026812062AD58269D205DD
:107F200006D5C26942F48072C261012283F8AC2A8C
:107F300083699A0509D5C2692C2342F4007203FBB8
:107F40000143C261012283F8AC2A83695B0509D52C
:107F5000C2692C2342F4806203FB0143C261012207
:107F600083F8AC2A2C2303FB01F1631893F8AC3A95
:107F700013B95DF8044B7047034B5DF8044B19448B
:107F800090E600BF302B0020DC3500200020B9E750
:107F90000020D9E60120B5E70120D5E60220B1E7AF
:107FA0000220D1E60320ADE70320CDE610B103683F
:107FB00082889A61704700BF10B1036882889A6214
:107FC000704700BFD3B20F2B21D8124B00B503F17D
:107FD0006F0E02E00333734516D093F800C084455A
:107FE000F8D193F801C08C45F4D10B489B7802EB93
:107FF000420200EB8201A83000EB8200C1F8B030F1
:1080000081F8A8305DF804FB00205DF804FB002037
:10801000704700BF60BD05080000002010B40C4C84
:10802000002304F6443C01E0152B0CD003EB430283
:1080300001331CF802108142F6D1144494F9460B26
:108040005DF8044B70474FF0FF305DF8044B70470C
:10805000302B002030B5124C002304F5B87C02E030
:1080600001331F2B1AD05CF833508542F8D10CEB4A
:10807000C30EDD009EF804E08E45F1D1094802EB05
:1080800042022C4400EB820394F87511C3F8B0103F
:10809000A83000EB820083F8A81030BD002030BD6E
:1080A00060BC050800000020F0B110B504460F4880
:1080B00094F804E0002300F6443C01E0152B11D0B5
:1080C00003EB430201331CF802107145F6D183180B
:1080D000617993F9462B2068D3B20F2B02D8BDE803
:1080E0001040B7E7002010BD00207047302B002063
:1080F0000348D0F8783113B100F5B47018477047D1
:10810000000000200348D0F8A43113B100F5CA7074
:1081100018477047000000200348D0F8D03113B151
:1081200000F5E07018477047000000200348D0F8C1
:10813000FC3113B100F5F6701847704700000020BD
:108140000348D0F8283213B100F50670184770477D
:10815000000000200348D0F8543213B100F511702C
:1081600018477047000000200348D0F8803213B150
:1081700000F51C7018477047000000200348D0F835
:10818000AC3213B100F5277018477047000000208B
:108190000348D0F8D83213B100F532701847704751
:1081A000000000200348D0F8043313B100F53D70FF
:1081B00018477047000000200348D0F8303313B14F
:1081C00000F5487018477047000000200348D0F8B9
:1081D0005C3313B100F5537018477047000000205E
:1081E0000348D0F8883313B100F55E701847704724
:1081F000000000200348D0F8B43313B100F56970D3
:1082000018477047000000200348D0F8E03313B14E
:1082100000F5747018477047000000200348D0F83C
:108220000C3413B100F57F70184770470000002030
:108230000F4B01382C2202FB00320E4BD2F8682182
:108240000D48996C824214BF02220122114382B070
:108250009964996C0A400192019A9A6C42F0040266
:108260009A649B6C03F004030093009B02B0704778
:10827000000000200010024000000240F0B51B4C3E
:1082800001381E462C2303FB0044194BD4F8680127
:1082900083B0984214BFA120A02015460F464BF092
:1082A0007DFA144B9A6C42F004029A649B6C94F928
:1082B0008001C4F8787103F004030193C5F301123F
:1082C000A909019BC4F8846146F0CCF994F9803186
:1082D000002B08DB5809084903F01F03012202FAAA
:1082E00003F341F8203003B0F0BD00BF00000020D0
:1082F000000002400010024000E100E00120FEF713
:1083000089BF00BF0220FEF785BF00BF0420FEF733
:1083100081BF00BF0820FEF77DBF00BF1020FEF721
:1083200079BF00BF4FF47870FEF774BF4FF47C4004
:10833000FEF770BF30B1036882881B691A4214BF10
:1083400001200020704700BF70B50D4682B0164670
:108350000446B8B1036803F138439B0A0B4A13443F
:1083600093F868024BF01AFAC5F38103CDE90036A1
:1083700005F01302A1882068C5F341134DF0EAFC13
:1083800002B070BD4FF0FF33E8E700BF60BC0508E6
:1083900000B1D9E770472DE9F84FDFF824832C238B
:1083A00003FB00830646D3F8945A002D00F0728137
:1083B000D3F89C7A27B197F90630002B40F06A81F8
:1083C0002C2303FB0683D3F8A04A24B194F906308A
:1083D000002B40F05F81731CDBB217B11522BA711C
:1083E000FB7114B11622A271E3714FF02C0909FB45
:1083F00006F908EB090A95F828004BF0CFF9214659
:1084000038464EF0B3FF9AF8A63A9AF8A42A002B01
:108410000CBF4FF01E0B4FF03E0B59463846FFF78E
:10842000B7FF20469AF8A52A5946FFF7B1FFDAF8B8
:10843000943A99485C6814220021484453F0A8F803
:10844000236823F001032360944B9C4240F0F180A9
:1084500003F5DE339A6B42F400129A639A6B22F4AE
:1084600000129A6346F038FB2C2303FB068307EEC9
:10847000900A9FED8B7AB3F8A88A9FED8A5AF8EE9E
:10848000677AB0EE084AC7EE275A002640F2145C1D
:1084900007EE908A9FED847AF8EEE77A25EE844A1B
:1084A000C7EE274ADFED817AB0EE007AE5EE877AF3
:1084B000A5EE875A74EEE72A37EE856AF7EE003AA2
:1084C000B8F5C87F06F1010707EE907AD5BF4FF4E3
:1084D00096727822642332231344F8EEE76A07EE9B
:1084E000903A66EEA56AB8EEE77AA2F13202C7EEDC
:1084F000267AD5BF4FF4167E4FF4827E61464FF444
:10850000FA71714407EE102A77EEE37AB8EEC77A73
:10851000FCEEE77A37EE447A17EE903AC7EE267A09
:10852000FCEEE77A17EE900A07EE90EAB8EEE73A2B
:1085300007EE901A23EE243AF8EEE77A83EE277AD4
:1085400037EE453A32EEC77AC3EE267A77EEE37A13
:10855000FCEEE77A17EE901AC7EE267A77EEE37A0A
:10856000FCEEE77A17EE902A02F1020E0EEB0109FB
:1085700007EE909AF8EE677AB0EE467AA6EEA77A02
:10858000F4EEC74AF1EE10FA7EDC43EA000E5FFA21
:108590008EFEBEF10F0F79D841EA020E1FFA8EFE51
:1085A000BEF1FF0F72D81B05000400F47F0003F03A
:1085B0007F6303433E4843EA067300EA01210B430D
:1085C00092B21343226822F001022260226822F450
:1085D000F85222602361236843F001032360A368FB
:1085E00023F40043A360A3686FF30A03A360236826
:1085F00023F440132360636823F40043636023681B
:1086000043F0010323600022114695F92A0046F049
:1086100029F895F92A0046F063F8002295F9290017
:10862000114646F01FF895F92900BDE8F84F46F0CD
:1086300057B8204B9C4209D103F5DC339A6B42F4C6
:1086400080029A639A6B22F480020AE71A4B9C42DA
:1086500009D103F5CC339A6B42F080429A639A6B4E
:1086600022F08042FDE6154B9C427FF4FBAE03F501
:10867000C633DA6B42F00202DA63DA6B22F00202EE
:10868000DA63EFE63E461BE701316FE70F2FF9D1C2
:10869000002397E7BDE8F88FDC3500200054004048
:1086A000286B6E4E0000164300247449000070428F
:1086B00000FFFF00005800400078004000840040A8
:1086C000302B002008B100223EE6704770B50F4CF9
:1086D00094F8F865BEB104F56674002504E0013530
:1086E000B54204F120040ED0237F002BF7D0E068C0
:1086F00000220028F3D0217D0135FFF725FEB54289
:1087000004F12004F0D1012070BD00BF381A002010
:1087100070B590F872301D09013D052D044611D841
:108720001B4E06EB450203F00F03B2F8701241FA3C
:1087300003F2D20706D590F87520012AD0B205D0F1
:10874000012070BD94F875300120FAE79840013897
:108750002E44084053F02AFA96F87C320D4A03441E
:1087600002EBC30552F83320AB8810691840E8D0FB
:10877000002394F8732084F8753002212846FFF70F
:10878000E3FD226E136843F008031360D8E700BFCF
:1087900060BC0508B436002038B53A4C94F8D524AE
:1087A000B4F8D834022A13D094F8D524D4F89854C5
:1087B000012A04BF022284F8D5240C2B0CD8DFE850
:1087C00003F0110B0B0B250B0B0B390B0B0B4D0097
:1087D000002384F8DA3438BD00236B62012384F867
:1087E000D53438BDD4F8BC04274A284BC262436351
:1087F000274940F22A4305F1340246F011F80023DC
:108800006B62EB6843F40073EB60E7E7D4F8C004F5
:108810001D4A1E4BC26243631D4940F22A4305F1C3
:10882000380245F0FDFF00236B62EB6843F4806380
:10883000EB60D3E7D4F8C404134A144BC262436319
:10884000134940F22A4305F13C0245F0E9FF0023B9
:108850006B62EB6843F40063EB60BFE7D4F8C804D5
:10886000094A0A4BC2624363094940F22A4305F1AF
:10887000400245F0D5FF00236B62EB6843F4805360
:10888000EB60ABE7381A002065BD040859BD040849
:10889000B4780020800000F1804000F5145000689A
:1088A000704700BF800000F1804000F51450016067
:1088B000704700BF10B4254B2548996D254A41F0FB
:1088C000805183B09965996D01F0805101910199B2
:1088D000016841F480710160996D41F4806199658E
:1088E000996D01F4806100910099D3F8901041F4E2
:1088F0000041C3F89010FF24CA20532154625062F3
:108900005162D3F89430DB0014D4134B1349002286
:10891000C3F80425C3F80825C3F80C25C3F81025AF
:10892000C3F81425C3F81825C3F8001503B05DF883
:10893000044B7047A2F50062084BD2F800259A421A
:10894000E3D103B05DF8044B704700BF0010024054
:108950000070004000280040002000403166654261
:108960002DE9F84FD0F828618368F5B21F68534BA2
:10897000083DA3FB05352D09044626F0FF08013507
:1089800000F1F80A00F1BC09294640464DF022F9F1
:10899000D4F8E8200023B2F5807F84F8EC301CD0B6
:1089A0000ED9B2F5804F18D070D8B2F5806F14D0C0
:1089B000B2F5805F6FF4006114BF382304230FE029
:1089C000102A78D06BD8012A4ED0042A16BF6FF433
:1089D00000616FF00801382302E06FF00801042302
:1089E000524607F1180A38465AF803C001EA0C014A
:1089F0004AF80310D4F8E8B059464CF0A1FEBBF594
:108A0000807F2DD01DD8BBF1100F51D02FD8BBF1D6
:108A1000010F02D0BBF1040F2CD10827DAF8003087
:108A20003B43CAF800301023C4F8C4304A462946F4
:108A300040464DF08DF8336843F002033360BDE8E3
:108A4000F88FBBF5804F0BD019D8BBF5806F07D0DE
:108A5000BBF5805F0ED107F11C0A4FF40067DDE71C
:108A600007F11C0A0827D9E76FF00801B8E7BBF146
:108A7000400FD2D00AF1380A4FF40067CEE7BBF5B9
:108A8000803FF7D107F1500A0827C7E7B2F5803FCA
:108A900014BF6FF400616FF008013823A0E7402A8B
:108AA00015BF6FF400616FF008013823002397E7CA
:108AB0004FF40067B2E76FF4006191E7CDCCCCCC06
:108AC0002DE9F04F0679046E16F002098DB00546C7
:108AD0002ED090F87280B8F1000818BF4FF001084E
:108AE0004FEAC802236823F4F8732360A36823F0D5
:108AF0000103A360236823F001032360564B9C42CB
:108B00006BD0564B9C4216D0554B9C4270D0554B67
:108B10009C4278D0544B9C4217D103F5E033996BBB
:108B200041F480119963996B21F4801199630CE0F1
:108B30004A46C846D6E703F5E633996B41F400315F
:108B40009963996B21F4003199632368D5F808A0E3
:108B50006F79DB073ED42368444938021940BB02D1
:108B600003F4805300F48060034306F001060B43D6
:108B700043EA86031343236062683B0322F44052B6
:108B800003F4005313436360A36823F44073A360AA
:108B9000374BA4EB030BBBFA8BFB03F538434FEACF
:108BA0005B1B9C424FEA8B0B38D02C4B9C4267D00E
:108BB0002B4B9C4200F02F812A4B9C4200F0968167
:108BC000294B9C4200F05981E36A23F00F0343EAEA
:108BD0000B03E3620DB0BDE8F08F03F55843196C49
:108BE00041F480411964196C21F480411964ACE7A7
:108BF00003F5E433996B41F480219963996B21F477
:108C000080219963A1E703F5E233996B41F40021D8
:108C10009963996B21F40021996396E7154A1649E7
:108C2000D2F8883003F0030343F440338B4200F062
:108C30006F81B3F1031F32D001398B4200F02F81D5
:108C400046F0A0F80B4A0D4993689268C3F30313EA
:108C50000B44C2F3C222FAE0003801400044004055
:108C600000480040004C004000500040F369FFEF16
:108C700000800040001002400200030060BC0508B4
:108C8000A74AA849D2F8883003F00C0343F44023E4
:108C90008B4200F0EC80B3F10C1F40F00781D2F85A
:108CA00090309A0790D54FF40043BAF1000F8BD063
:108CB0009D4A02EB8B02D2F89C22B3FBF2F303EB4A
:108CC0005A03B3FBFAF39BB2E360E36A23F00F03AA
:108CD00043EA0B03E362FB070BD51EB1636843F461
:108CE00080336360B9F1000F03D0636843F400334D
:108CF000636095F874301BB1636843F400436360AC
:108D0000A36843F48053A360236823F000532360D7
:108D1000636823F490436360A3683F0723F02A034A
:108D2000A36003D5A36843F00803A360236843F05E
:108D300001032360002E37D0EF6B002F00F0C580B9
:108D40006B6C099304F12403009380230593202383
:108D500003934FF480530A93FEB2744B083EA3FB77
:108D6000063600230293049336096B69019301369A
:108D7000EB68089327F0FF0900230022314648469C
:108D8000CDE906234CF026FF314648466A464CF0B2
:108D9000DFFE3B6843F001033B60A36843F0400300
:108DA000A3607B689BB26B65B8F1000F3FF412AF14
:108DB0002F6C002F7ED05D4BFEB2083EA3FB063623
:108DC000AB6C09931023029304F128030093360936
:108DD000802327F0FF08013605934FF480530A9350
:108DE000314600234046CDE90333CDE906330193F4
:108DF00008934CF0EFFE6A46314640464CF0A8FE20
:108E00003B6843F002033B60236843F04003236068
:108E10000DB0BDE8F08F424A4549D2F8883003F0E2
:108E2000300343F440138B4221D0B3F1301F3FF4A1
:108E300036AF10398B4232D045F0A4FF384A3A4958
:108E400093689268C3F303130B44C2F302221144E4
:108E500093F8843291F8942203F01F0320FA03F36D
:108E600002F01F02D340002B7FF41FAFACE6136863
:108E700059057FF5A9AE2F4B17E7294A2E49D2F89D
:108E8000883003F4407343F040738B42EFD0B3F16A
:108E9000032F3FF404AFA1F580718B42CCD145F094
:108EA00071FF0346002B7FF400AF8DE604398B423F
:108EB000F5D0C1E7236843F080032360236843F0C3
:108EC000400323600DB0BDE8F08F236843F4807346
:108ED0002360A36843F00103A360236843F02003E9
:108EE0002360236843F0100323605DE70C4A1349B5
:108EF000D2F8883003F0C00343F440038B42B6D06D
:108F0000B3F1C01F3FF4CBAE40398B42C7D093E7DB
:108F100013685805AFD4E36A23F00F03E36259E600
:108F20000010024008000C0060BC0508CDCCCCCC81
:108F3000200030000024F400000200038000C00084
:108F400038B50409013C052C1AD80F4D05EB440235
:108F500000F00F03B2F8700240FA03F212F00102BF
:108F600010D0012202FA03F3013B1840254452F0CD
:108F70001DFE95F87C32054A034402EBC30038BD60
:108F8000002038BD104638BD60BC0508B43600204E
:108F900070B5002486B0CDE90144CDE903440DF15C
:108FA000040CC0E93744C0E93944C0F8EC40054638
:108FB00000F1F00EBCE80F00AEE80F00CEF8004064
:108FC00095F80901154E0594C5F8346108B906B045
:108FD00070BDFFF7B5FF29460646A0B12623C38022
:108FE0000F4B41F80C3F224623464CF0ABFF0D4996
:108FF000B2880868B2FA82F24FF00043D3400343CC
:109000000B6006B070BD064B41F80C3F02460346AC
:1090100006B0BDE870404CF095BF00BF3B43413BFC
:10902000616B0008000401402DE9F84F734E00EB1E
:10903000400306EBC303D3F8844E002C00F0978066
:1090400093F8948E642106F6E46201FB0022054643
:1090500047004046C3F8902E4AF0A0FB4FEA581351
:10906000012208F01F08013B02FA08F2052B09D87B
:10907000DFE803F0ABB103B7BDA561498B6B23EA11
:1090800002038B637B1906EBC30305F1010B93F815
:10909000880EFFF755FF5FFA8BFB804618B112234D
:1090A00080F807B083717B1906EBC30393F8890E30
:1090B000FFF746FF824618B1132380F807B083718B
:1090C0007B1906EBC30393F88A0EFFF739FF81463D
:1090D00018B1142380F807B083712F4406EBC7063C
:1090E000504696F88C2E2E21FFF752F996F88D2EC9
:1090F00048460E21FFF74CF996F88B2E2E2140465C
:10910000FFF746F923683F4A23F040039442236067
:109110002FD03D4B9C4236D103F5EC339A6B42F491
:1091200080429A639A6B22F480429A63636843F4A4
:109130008053636023685B0611D4236823F47F4364
:1091400023F0BF0343F4457343F0030323606368D4
:1091500023F4706323F0040343F4E0636360E36982
:1091600023F40063E361236843F040032360BDE818
:10917000F88F234B1A6C42F480521A641A6C22F452
:1091800080521A64D2E7214B9C420DD0204B9C4266
:10919000CCD103F554431A6C42F400421A641A6CA1
:1091A00022F400421A64C1E703F5EA339A6B42F4F1
:1091B00000429A639A6B22F400429A63B6E7104920
:1091C0000B6B23EA02030B635CE70D49CB6A23EACE
:1091D0000203CB6256E70A490B6C23EA02030B64D5
:1091E00050E70749CB6B23EA0203CB634AE7044904
:1091F0008B6A23EA02038B6244E700BF302B002016
:10920000001002400030014000380040003C0040A7
:10921000003C01402DE9F04FDFF890929E4E9F4FA9
:1092200083B082464FF00108DAF800506C684C4574
:1092300000F049819A4B9C4200F0488103F580631D
:109240009C4200F04681974A94420CBF4FF0030CB9
:109250004FF0FF3C2368BAF8041028899AF8682078
:10926000009223F04003884285F82480236014D0C4
:10927000B1F5807F0B46A8BF4FF48073022BB8BFB7
:109280000223206893FAA3F3B3FA83F320F03800A3
:10929000013B40EAC303236029819AF80CB0A97A04
:1092A00059451ED080490CEB4C0201EBC2020192E1
:1092B00092F8880EFFF744FE019A92F88B2EBBF1CC
:1092C000000F40F0D98010B12E21FFF73DF8226841
:1092D00042F001022260226842F00202226085F818
:1092E0000AB0236895F80CE043F0400323602B6A32
:1092F0009A68002A00F0F28000201433844653F864
:10930000101C944401EA060239B16969002937D07A
:10931000B2F1805F34D0BA4232D053F8142C1433F7
:1093200002EA060122B1B1F1805F29D0B94227D00B
:1093300053F80C2C0130002AE1D1BEF1000F1FD0F0
:10934000009BEBB1012802D8BCF1070F10D9296AA4
:10935000DAF800004EF0FEFDDAF8083013B11A68B2
:109360009B889362504603B0BDE8F04FFDF7D2BF33
:1093700000EB800082002B6A13441B7B002BE6D09D
:109380002B6A9B684FF0000B002B00F09180BBF123
:10939000000F02D09BF80C302BB1DAF8083013B173
:1093A0001A689B8893622B6A18682B6A59682B6A23
:1093B000D3F808C06368BCF1010F23F480536360E5
:1093C00014DD6246A3689B07FCD5002851D030F815
:1093D000023BA381A368DB07FCD5E36809B121F850
:1093E000023B023A012AEDDC0CF0010C636843F405
:1093F00080536360BCF1000F14D12B6A1B7B1BBB35
:109400002B6A1B69002B2AD02B6ADAF874001B69BF
:109410009847012828D0022821D100232B6203B0CD
:10942000BDE8F08FA3689A07FCD5002831D00378F7
:109430002373A368DB07FCD5E3680029DDD00B703C
:109440002B6A1B7B002BDBD0DAF80830002BD7D03F
:109450001A689B8893612B6A1B69002BD4D1D5F8BD
:1094600020B02B6A14332B622B6A9B6803B36C68A1
:109470008DE74FF6FF73ACE710B14E21FEF764FFA6
:10948000226822F001022260226822F00202226099
:1094900025E7FF23CCE700BF0080FFFF008001200D
:1094A00000380040003C0140302B002000300140DB
:1094B0002B6A1B6883B12B6AD3E900A100222962C1
:1094C000C3E90022B0E64FF0000CC3E64FF0010CF8
:1094D000C0E64FF0020CBDE62B62A0E7BEF1000F24
:1094E0003FF44EAF009B002B7FF445AF48E700BF31
:1094F000F8B5C569002D56D02C68236A1B7B002B5C
:109500005DD1D4E904160F680B7A4249626830686D
:109510000B4413F801CC57F80C3023F0010347F843
:109520000C30377A3944022311F801CC50F80C1072
:1095300021F0010140F80C10317D8B4043F00C0309
:109540004360536823F002035360536823F0010320
:109550005360236A1B693BB1236A686F1B69984794
:1095600001284AD0022820D0236ADA694AB958690A
:1095700000282BD099692162C3E90522BDE8F84093
:1095800048E6216A94F824200E7B1433F6B2236255
:109590001ABB002E2AD12846FDF7BCFE2868016AB6
:1095A000CB69002B14DCF8BD2362236ADA6914331B
:1095B000002AF9D1236ADA69002AE2D1D7E7AB6839
:1095C000002B9ED01A689B8893619AE72062F8BDB1
:1095D000BDE8F84014314EF0BDBC216A28684EF059
:1095E000B9FC002384F82430002ED4D0AB68002BC3
:1095F000D1D01A689B889362CDE7236A2868143B10
:109600002362016ACB69002BAEDD14314EF0A2FC5F
:10961000AAE700BF9843060808B51D20FFF790FC95
:1096200010B190F9063053B11E20FFF789FC10B13C
:1096300090F9063003B108BD5523C38008BD5523FA
:10964000C380F1E7F8B50E4C94F8F875A7B104F6AD
:109650003804C7F109070925013D0FD0A668307904
:10966000FFF76EFC94F8B810F27908B1FEF76CFEC3
:10967000AF4204F59A74EFD10120F8BDAB68FFDE6C
:10968000381A0020F0B4046EEFF31183502282F3F5
:1096900012880279920702D590F872203AB9012215
:1096A00080F86420DBB283F31188F0BC7047056C4E
:1096B0002A6812F00102F5D1466A816A8E42EED024
:1096C000866A476A816A8F421ED8876A0169826208
:1096D000C91B89B282693244002680F86460402048
:1096E0002062EA606A686FF30F020A436A602A68C0
:1096F00042F001022A60A26842F08002DBB2A2605E
:1097000083F31188F0BC7047416A826A891A426A01
:10971000826289B2DEE700BF10B40346C06993F8E5
:1097200014C01C68016C022202FA0CF262600B6821
:109730005DF8044B23F001030B60A3E770B50379D8
:10974000046E13F00205064604D090F87250003DF6
:1097500018BF01252368980602D5E369990659D4F4
:10976000E369DA0744BF01232362E3699B0744BF2F
:1097700002232362E369580744BF04232362E36999
:10978000190744BF082323622368002D39D05A06E5
:109790000FD5E3695D060CD54023236296F875303A
:1097A00003F0FF05002B58D0336C13B13046FFF7A0
:1097B00069FF2368180618D5E369190615D5B26A3A
:1097C000736A9A42236844D013F0102F18BF23689D
:1097D000B269B36AD35CDBB2A362B36A32690133A4
:1097E000B3FBF2F102FB1133B3622368DA0607D54B
:1097F000E369DB0604D5736B03B19847102323623A
:1098000070BD23F0C0032360E3695B06EDD5402300
:109810002362EAE7606AF36AC0B273B1316B9847BA
:10982000236823F480732360A36823F00103A360FB
:10983000A36943F00803A36192E7F3697269D05406
:10984000F369F2680133B3FBF2F102FB1133F36108
:10985000E6E723F080032360C7E796F87200FFF77E
:109860006FFB326E1368012123F00803136086F842
:109870007510002898D02A462021FEF765FD93E751
:10988000BFF34F8F0549064BCA6802F4E0621343E9
:10989000CB60BFF34F8F00BFFDE700BF00ED00E0DE
:1098A0000400FA052DE9F047BFF35F8F4F4A00210E
:1098B0000B46C2F894100846C2F898300133112BB9
:1098C000C2F89C10C2F8A010F6D10523C2F894305B
:1098D000BFF34F8FBFF36F8FBFF35F8F444C434E87
:1098E000C2F894000025012721E000284ED022680C
:1098F000637AA17A94F80BE094F80CC01B0643EA53
:10990000017343EA4003617BC6F8985043EA8E43F3
:1099100043EA4C4343EA0143013543F00103032D7D
:10992000C6F89C2004F11004C6F8A0302FD0D4F85B
:109930000480207AB8F1000FD7D022680028D7D150
:1099400022F01F09A8EB090ABAF1200F38BF4FF027
:10995000200A504651F0FCFD431E07FA03F29245DF
:1099600008BF184607FA00F35A4202EA09021344F4
:10997000984509D90121013001FA00F35A4202EA5F
:10998000090213449845F6D8C0B2B1E7FEE70523B3
:10999000C6F89430BFF34F8FBFF36F8FF368154C49
:1099A0004FF6FF02134043F00523134A43F47A03B2
:1099B000F360D2F8943045F057F8D6F8FC200F4BFE
:1099C000B0FBF4F0002142F08072C6F8FC20596030
:1099D0001A680B4942F001021A608B68094A43F485
:1099E00080438B6042F8840CBDE8F08700ED00E016
:1099F0002804002040420F0000100240001000E048
:109A000000700040283C002008B572B6FFF738FF10
:109A100003689B0AA3F58013542B00D970470E4AA4
:109A200013441B7E0B2BF9D810B40C4C427904EB79
:109A30008310920850F8800C02239340C26829B921
:109A400022EA03035DF8044BC360704713435DF8DB
:109A5000044BC360704700BF60BC0508283C002071
:109A600003689B0AA3F58013542B0FD8084A1344AC
:109A70001B7E0B2B0AD80749427901EB8311920810
:109A8000022351F8801C9340DB430B61704700BFF9
:109A900060BC0508283C002001490248FDF7D8BBFE
:109AA00034200020002C014010B5064C064804F27A
:109AB000FC51FDF7CDFB04F5F1610448BDE8104011
:109AC000FDF7C6BB381A0020002C014000440140BD
:109AD00002494FF08040FDF7BBBB00BF6020002073
:109AE00001490248FDF7B4BB8C200020000400406F
:109AF00001490248FDF7ACBBB82000200008004037
:109B000001490248FDF7A4BBE4200020000C0040FE
:109B1000F8B5164D164E2A69EB681A404FF0004012
:109B2000B2FA82F320FA03F3DB4302EA0301C2B183
:109B3000012A2B6101D00A46F2E7D6F800778FB1EF
:109B4000013F0023BFB2C6F80037D6F8FC4634B157
:109B500023682046394698476468002CF8D10022D3
:109B6000DCE7F8BDEF6ABFB2EFE700BF00100040CE
:109B7000381A002001490248FDF76ABB682100201D
:109B80000034014001490248FDF762BB6821002012
:109B90000034014001490248FDF75ABB94210020DE
:109BA0000040014001490248FDF752BBEC21002072
:109BB0000048014001490248FDF74ABB1822002035
:109BC000005001402DE9F0414FF40F728CB056481F
:109BD000564D002151F0DCFC554B1A6E42F40062E8
:109BE0001A661A6E02F400620092009A9A6D42F0B0
:109BF00001029A659A6D02F001020192019A9A6D32
:109C000042F002029A659A6D02F002020292029AF2
:109C10009A6D42F004029A659A6D02F00402039272
:109C2000039A9A6D42F008029A659A6D02F0080252
:109C30000492049A9A6D42F010029A659A6D02F0AD
:109C400010020592059A9A6D42F020029A659A6D6B
:109C500002F020020692069A1A6E42F400521A6628
:109C60001A6E02F400520792079A1A6E42F480327A
:109C70001A661A6E02F480320892089A1A6E42F43A
:109C800000321A661A6E02F400320992099A1A6EAC
:109C900042F480221A661A6E02F480220A920A9A0C
:109CA0001A6E42F480121A661B6E03F480130B9333
:109CB0000B9B4FF00008A5F5337605F62C2440F2F7
:109CC0008B2755F82810002354F83320914226D0D2
:109CD00001330C2BF8D1002008F1070849F05EFD94
:109CE000B845EED14FF0000840F28B2755F8281008
:109CF000002354F8332091420CD001330C2BF8D1BF
:109D0000002008F1070849F049FDB845EED10CB034
:109D1000BDE8F08106EBC30393F8FC0CF1E706EB1A
:109D2000C30393F8FC0CD7E7342000202CBF0508B0
:109D3000001002401F4A204B904210B45B6827D0AD
:109D400002F50062904223D002F5406290421FD09B
:109D500002F5806290421BD002F58062904217D0DB
:109D600002F50062904213D01448154A8168846855
:109D7000C1F302210A4414F4E06F92F8942202F035
:109D80001F0223FA02F000D040005DF8044B704738
:109D90000A480B4A81688468C1F3C2210A4414F45A
:109DA000605F92F8942202F01F0223FA02F0ECD0D6
:109DB0004000EAE7002C01400000002000100240B3
:109DC00060BC05082DE9F8430468A30AA3F58013D5
:109DD000542B51D81646474A13441D7E0B2D4BD8A1
:109DE000DFF81C91013909EB851889B248F8741C19
:109DF0000068FFF79FFFB0FBF6F0013848F87C0CD5
:109E000058F8800CA9F18003AF01A04203EB85153F
:109E100005F1040169D007F108021344002248F853
:109E2000782C48F8804CC3E9022218F8433C03F030
:109E3000FF02002B56D009EB07050226204605F845
:109E4000436C44F095FE2C4A0123944205F8433CB0
:109E500035D0B4F1804F11D0A2F5943294420DD098
:109E600002F58062944209D002F58062944205D0E6
:109E700002F59432944222D0BDE8F88315F8442CC0
:109E8000012AF9D005F8436CA1681C4A0A40A26077
:109E900005F8433C05F8436C6368A26823F000733F
:109EA000B94423F07003636022F080020121002393
:109EB000A26009F8431C09F8443CBDE8F88315F892
:109EC000442C012AD8D005F8436CA1680B4A0A40FB
:109ED000A26005F8433C05F8436C6368A26823F46C
:109EE0007003DBE708F8442CA5E7BDE8F84344F02D
:109EF0003FBE00BF60BC0508002C01408800CEFFBB
:109F0000283C00202DE9F04FAD4FAE4EDFF8C09257
:109F100093B000230193A7F63865AB4CAB4BD4F854
:109F200000A093F8D2224FEA9A23A3F58013542B72
:109F300000F2C8802B441B7E0B2B00F2C380012A49
:109F400016F903B000F0F580022A02D1BBF1080F28
:109F500034D14FF000084146584612F0D9FE12F0B5
:109F600065FF90F9003013B1542B40F0C58108F122
:109F700004081FFA88F8B8F1100FECD1019B0021FA
:109F8000002B00F0A980924A0AE02B441B7E0B2B89
:109F90000DD8F3565B450DD0E4324A4500F0998068
:109FA000906803689B0AA3F58013542BEDD9002316
:109FB0005B45F1D1437960799842EDD11C34A742D9
:109FC000ACD1019B0133042B019309F1E409A4D125
:109FD000804A92F8F835013302F5667903934FF021
:109FE000010B039B5B456AD0784BD9F80C6099F85C
:109FF000102093F8E6320192002E60D0754AD6F810
:10A0000000A05568B28802920AF13840002D4FEA4C
:10A01000902040F39A806E4A002405E00134AC425F
:10A0200002F1E40200F08E8011688142F6D1684BA3
:10A03000029DE42202FB0434019B89F81030029B4C
:10A04000C9F80C60B3FA83F7C7F11F034FF003029E
:10A05000C9F80430C9F81840B27186F807B0A16C8D
:10A06000206C5E0001224FF0030C0CFA06FC02FA91
:10A0700006F63143A16457490E7840EA0C0002FA13
:10A0800003F32064D4F84CC0D4F8940099B2002EA5
:10A0900000F0388143EA0C03E364CAF81850FCF777
:10A0A00007F820460BF1010BFBF7D6FF40F2011336
:10A0B000BBF1090FA9F81C3009F1200991D113B0A7
:10A0C000BDE8F08F013A012A7FF678AF4FF0000B20
:10A0D0003FE700297FF472AFA0683F49002205E006
:10A0E0000132102A01F10C0100F037834B689842CD
:10A0F000F6D152B261795046FDF7ACFF374A40685D
:10A10000002304E0102B02F12C023FF457AF5168FA
:10A1100088429C4603F10103F4D1314B2C2202FB0F
:10A120000C3393F98831002B7FF448AFC9F808400D
:10A1300047E7BBF1010F3FF40CAF1C34A7427FF49B
:10A14000EDAE3EE7042C00F03182224AE42101FB0F
:10A15000052211690491002900F0DE8290604FF021
:10A1600054010130C4B282F8E8101A4982F8E9407B
:10A170006A1C4A60049A5179106897680591002218
:10A1800015499C4605E00132102A01F10C0100F04E
:10A19000E4824B689F42F6D10599CDF818C052B2BF
:10A1A000FDF758FF0B4BDFF83480D0E90171E42252
:10A1B00002FB0532C2E90771069B4146002216E008
:10A1C00098CA050888430608B8C90508283C002035
:10A1D000401A0020381A0020A80000206801002042
:10A1E00000000020102A01F12C013FF468AF4868FC
:10A1F0008742944602F10102F4D187492C2202FBE6
:10A200000C1C9CF98821002A7FF459AFE4220793A3
:10A2100002FB05F35A0002EBA302C2EB422202EB5F
:10A22000824252427D498CF8894102EB42008C24E3
:10A2300000EB001001EB800004FB02F201F54C7111
:10A2400001EB4202764906931944C1E935245422B0
:10A250008CF888213322C1F8A020049AC1F89C0010
:10A26000C1F80CA0D2F800A06E4A5046D418FFF7EF
:10A2700061FD079B062B00F0A081072B6A496B4B01
:10A280006B4A18BF1A466B4B18BF0B46B0FBF3F373
:10A29000B0FBF2F26248E42101FB0501013B9BB2F5
:10A2A000013AA1F8A420A1F86C30A365069B03F144
:10A2B000500100F1080319440023A4F85030E3656D
:10A2C000636550464BF0EEFBDAF80030059A43F038
:10A2D0008003CAF800300C2A22D8DFE812F0D90136
:10A2E000210021002100B60121002100210096015A
:10A2F0002100210021007101019B0121002B7FF42D
:10A3000042AE5BE6C7F12F0702FA07F343EA0C03FC
:10A310002D04E3643246CAF81850FBF7C9FEC0E6C4
:10A320003F4AE42303FB0523602259690A92DAF8C5
:10A33000003007914FF480721092012223F0010344
:10A340000B924FF0020C0A22CDE90D2CCAF8003016
:10A350000AAA002350460C930F9311934BF0F0F987
:10A360000799B1F5807F4FF000030AD040F2C98110
:10A37000B1F5804F05D000F2D681B1F5806F40F085
:10A38000DF81082204230AF11800C1580A43C25091
:10A39000049B1879002840F0A181DAF8003043F0DE
:10A3A0000103CAF80030002304E0102B08F12C0848
:10A3B00000F09081D8F804209742194603F1010378
:10A3C000F3D10493144B2C2202FB0132D2F8680122
:10A3D000194A904214BFA120A02049F0DFF9174A82
:10A3E0000F48916C049BDFF85CC041F0040191645C
:10A3F000926C059902F004020C290992099A9BBFFC
:10A400000F4A02EB41020021B2F8381EE42202FB9F
:10A410000502118300221EE000000020103F0020F2
:10A42000381A0020401A0020D0DD060044950800AC
:10A430001055220040771B0000000240001002402F
:10A4400060BC0508A0460020824500F077810132FB
:10A45000042A00F085815CF832000028F4D1C2485B
:10A460000746D0F8980A0130C7F8980A07EBC200EF
:10A47000D200C0F878AA62441846938819439180A4
:10A480002346BA499022FDF7F9FEB94BE42707FBB2
:10A4900005374FF00008FD692A6842F002022A6081
:10A4A0002A6842F00A022A60C4E91D883A6AC4F8A0
:10A4B0008C204FF44052C4F8902080231022E36790
:10A4C0002267D7F8A020C4F88820E9B2A94AD7F8B3
:10A4D0000CA0069B0839A2FB01214FF40072C4F8BE
:10A4E00080200AF11802A26603F16802A24B4FF421
:10A4F000006C1A440909D7F89C30E36625F0FF0088
:10A500000131C4F884C0CDE904014BF021FBD5F83A
:10A5100000E0C4F820E0D5F804E0C4F824E0069B8D
:10A52000D5F808E0C4F828E0D5F80CE0C4F82CE031
:10A53000C4E92A8803F1A0028F4BC4F8B0801A4402
:10A540003B6AC4F8C4308023C4F8B4304FF40053DD
:10A55000C4F8C830D7F8D830C4F8C0300AF1100AAF
:10A560004FF48073C4F8A0A0C4F8B830D7F8D43042
:10A57000C4F8A4304FF48063C4F8BC30DDE90401B2
:10A580004BF0E6FA2B6823636B686363AB68A363E5
:10A59000EB68E3632B68D6F800A043F002032B605E
:10A5A0002B6843F00A032B60B58845E56E4A032308
:10A5B00082F8E73213B0BDE8F08F704A704B65E661
:10A5C0006B49DAF80030E42202FB051223F00103A4
:10A5D0004FF480515161CAF8003000230C930F935F
:10A5E000119360230A934FF48073109301230B930C
:10A5F0004FF0020C0A230AAA5046CDE90D3C4BF05D
:10A600009FF84FF400620423BDE65949DAF80030A0
:10A61000E42202FB051223F001034FF48071516123
:10A62000CAF8003000230C930F9311934FF0600E83
:10A630000123CDE90AE302220A23CDE90D32504677
:10A640000AAA10914BF07CF89BE64949DAF80030F1
:10A65000E42202FB051210215161602223F0010364
:10A660000A924FF48072CAF800301092002301223F
:10A670000C930F9311930B9202230A22CDE90D2321
:10A6800050460AAA4BF05CF800234FF400627AE6C9
:10A690003749DAF80030E42202FB051223F0010307
:10A6A00001215161CAF8003000230C930F931193DC
:10A6B00060230A934FF4807310934FF0020C0A2327
:10A6C0000AAA5046CDE90D3C0B914BF039F808220F
:10A6D000002358E64FF0FF31002372E6FEF730FC0E
:10A6E000079038B1049B0221DA79FDF72DFE079B14
:10A6F0005422DA80DAF8443043F40043CAF8443094
:10A700004BE6102926D016D8012921D00429DED005
:10A710004FF40062382336E6134A022382F8E73208
:10A7200013B0BDE8F08FB1F5803F14BF4FF4006265
:10A730000822382327E64029C9D0E9E7D2009AE663
:10A74000B1F5805F4FF4006214BF382304231AE68A
:10A75000082218E64FF4006215E600235B68FFDE6E
:10A7600000239B88FFDE00BF283C0020F960000822
:10A77000381A0020CDCCCCCC401A0020882A1100F9
:10A78000A0BB0D002DE9F04FA64D95F89C7A91B035
:10A790001FB9002011B0BDE8F08F00222F213846EC
:10A7A00012F098FB06460028F3D0DFF8AC8290F850
:10A7B0000590D0F800A0A8F8D894FDF775FC002803
:10A7C000E7D0D0E901430193002CE2D0DFF88CB24E
:10A7D0000022594601E0102ADBD04B689C42944687
:10A7E00001F12C0102F10102F5D18F4B2C2202FB69
:10A7F0000C3C9CF98831002BCBD12F22ACF888215E
:10A8000050460293C8F898A4FFF794FA874A029B2F
:10A81000904280F0E4800293012303935046FFF7B7
:10A8200089FA8349039BB0FBF3F2120AA1FB0221D0
:10A830008048029BC8F89C340A09A0FB0202520817
:10A84000A5F8A02A52000909A5F89E2A98F8D5244F
:10A85000C8F8A4140021C8F8A814C8F8A01402F07D
:10A86000FF01002A00F0CC800222734988F8D52429
:10A87000504644F07DF90122384688F8D524FEF789
:10A880005FFBC5F8A40A28B12F21C180F2794E21BF
:10A89000FDF75AFD694A019BC5F8AC3A0020C5F89E
:10A8A000B40AC5F8C40A916CC5F8A84A41F0010180
:10A8B0009164916C01F0010105910599916C41F051
:10A8C00002019164926C02F002020692069A102232
:10A8D000C5F8B02A8022C5F8B82A4FF40072C5F82E
:10A8E000BC2A4FF40062C5F8C02AB9F10C0F4FF42E
:10A8F0000052C5F8C82A00F28680514A02EB49028C
:10A90000B2F8547EBA46083708EB87024D49C2F8C0
:10A9100098144D4AC5F8D02A00205A4601E0102864
:10A9200076D053689C42054602F12C0200F10100EA
:10A93000F5D13D4B2C2202FB0532D2F86801434A87
:10A94000904214BFA120A02048F028FF3B4A916C00
:10A9500041F004019164926C02F004020792079A9C
:10A96000002001E0102851D0DBF804309C4200F1B7
:10A9700001000BF12C0BF5D108EB87085346344945
:10A980006022FDF77BFCD8F8980443F0B7FE03463D
:10A9900000287FF4FEAEB4790E93620002F002024A
:10A9A0000A92E20002F0080200230B926022CDE935
:10A9B000082300220023CDE90C2323484A4608A996
:10A9C00048F0BAFB00287FF4E4AEA3071E484946CE
:10A9D00021D544F0B7F9B0FA80F04009DAE65046E4
:10A9E000FFF7A8F91B4900F1B77202F55852A1FB15
:10A9F0000212920D013A93B20293013303930DE7D1
:10AA000088F8D41430E7824607467CE70020B3E795
:10AA10004FF0FF358DE744F071F8B0FA80F040094F
:10AA2000B8E600BF283C002000000020006CDC02DB
:10AA3000598B4F01ABAAAAAAD41E002000100240D5
:10AA400060BC0508D0460020D01E00200000024057
:10AA500009620008819F5E16381A002068010020F4
:10AA600037B590F85F38032B04462FD10023204DD3
:10AA70008DF807309DF8073094F860289A4201D885
:10AA800003B030BD9DF8073005EBC30393F80C3BD2
:10AA90008BB181F0010383B19DF8073005EBC3034F
:10AAA000D3F8080BFDF782FA9DF807300133DBB2CB
:10AAB0008DF80730DEE70B46EDE79DF8073005EB34
:10AAC000C303D3F8080BFDF777FAEDE7D0E91003DD
:10AAD0009B7903F00103994204D003B0BDE83040F4
:10AAE000FDF764BA03B0BDE83040FDF765BA00BFBA
:10AAF000283C002038B5044600790D4650B1FEF7D9
:10AB00001FFA08B10323C380E2792946BDE8384023
:10AB1000FDF73EBC38BD10B522210446FFF7EAFF21
:10AB20002046FEF79DFFBDE810400121FEF770BFF3
:10AB300010B501210446FFF7DDFF20460021BDE8E6
:10AB40001040FEF765BF38B510F8133CA0F664045A
:10AB500033BB94F85028002A33D1616AA36A994222
:10AB60001ED0A36AA169581CA062CB5CA06A2169AF
:10AB7000DBB25B0043F40073A4F854380A2384F872
:10AB80005238012384F8503894F85F38884228BF3F
:10AB9000A262012B01D0042B02D1606CFFF7C8FF29
:10ABA00094F84C38002B6DD194F84D380133DBB25A
:10ABB000092B84F84D3825D12046BDE83840FBF7F5
:10ABC000ADBB94F952586DB1B4F854184B08A4F8C1
:10ABD000543801F001012046013DFFF741FF84F8A0
:10ABE0005258DDE7626AA36A84F850589A42D7D176
:10ABF00094F85F38012B01D0042BD1D1606CFFF7A2
:10AC00008AFFCDE70A2B3DD194F84F382BB9B4F821
:10AC1000563843F00103A4F856382379D9070AD5EA
:10AC2000B4F85608820501D4C30718D4B4F85C38C8
:10AC30000133A4F85C38012284F84C2894F84F289A
:10AC40000023012A84F84D381CD1617984F84F38EB
:10AC5000606C01F00101BDE8384047F039BFE36A9C
:10AC6000C0F3470013B1216B9847E4E7E3696269D9
:10AC7000D054E369E2680133B3FBF2F102FB113314
:10AC8000E361D8E738BD00BF904BD3F80C25012A0B
:10AC90002DE9F04100F07F828D4A8E4CD2F8883049
:10ACA0008D4943F470038C42C2F8883004D08B4A3B
:10ACB0002046121B50F00EFC854B89499C600A68A7
:10ACC000884D42F480720A60D968874A4FF6FF00C7
:10ACD00001400A43DA6048F009FA7C4BD3F80805D2
:10ACE000FBF776FB814A136803F4C063B3F5806F0A
:10ACF000D2F8803023F48073C2F8803060D0734A79
:10AD00007B4BD2F80415D3F8E874D3F8E464D3F895
:10AD1000DC8451B177498B68C96803F00C030C2BB4
:10AD20006BD0082B6DD1734B1B68734C71498B68CA
:10AD3000C96803F00C030C2B74D0042B76D16D4939
:10AD40000B684B6823F0FE4343F080434B6048F0B0
:10AD5000CDF9002840F0B9806649D1F8943043F02D
:10AD60000103C1F89430D4F8480B04E0D4F8483B10
:10AD70001B1A022B55D8D1F894309B07F6D5D1F881
:10AD8000983043F00103C1F89830D4F8480B594982
:10AD900004E0D4F8483B1B1A022B42D8D1F8983073
:10ADA0009A07F6D58B6803F00C030C2B00F0B981E1
:10ADB0000B6823F080730B60D4F8480B4D4951E0C9
:10ADC00013684E4923F4C06343F4007313606B6847
:10ADD000322000FB03F3A1FB031351699B0C4805D0
:10ADE00003F1010306D500E023B15169490503F1E0
:10ADF000FF33F9D43D4B5B6981E701F0030103297F
:10AE000091D03C493C4C0B6843F480330B60D4F840
:10AE1000480B0B689B0389D4D4F8483B1B1A642B5E
:10AE2000F7D9FEE701F00301022988D031490B6808
:10AE300043F480730B60D4F8480B04E0D4F8483B2B
:10AE40001B1A022BEDD80B685A05F7D54B6823F077
:10AE5000FE4343F080434B607EE7D4F8483B1B1A27
:10AE6000022BDED80B689B01F7D4C868244A731EF6
:10AE7000024048EA0313134343EA072343F0805395
:10AE8000CB600B681B4A43F080730B60CB6843F0C8
:10AE90008073CB60D4F8481B04E0D4F8483B5B1ABD
:10AEA000022BBED813689801F7D50D4B1A6811070D
:10AEB00028D41A6822F00F0242F008021A601B68B8
:10AEC00003F00F03082B1DD0FEE7AAE70020004087
:10AED00000ED00E000F0012000000008D8F10120A2
:10AEE00000200240000000200003FA05007000402E
:10AEF000381A002000100240283C002083DE1B434B
:10AF00000C809F01B44B1A68920140F1F380D9681C
:10AF1000DA68DB6801F003010329C2F303120CBFF6
:10AF2000AE49AF490132B1FBF2F2AB49C3F306239C
:10AF300002FB03F3CA68C2F3416201325200B3FB61
:10AF4000F2F3A84A934206D98B688B6823F0F0038A
:10AF500043F080038B60A04B9A6842F003029A6032
:10AF6000D4F8481B41F2883004E0D4F8482B521A38
:10AF70008242A9D89A6802F00C020C2AF5D199688D
:10AF8000994A41F4E0619960996821F47C5141F457
:10AF9000E0619960996821F0F0019960136803F00D
:10AFA0000F03082B00F2A7808B4C904EA36823F46C
:10AFB000E063A360A36823F46053A36043F054FDEF
:10AFC000A368C3F30313334493F8843203F01F03DD
:10AFD00020FA03F76F6048F089F8002840F0DA8023
:10AFE000D4F88830824A834923F00303C4F88830B8
:10AFF000D4F8883023F00C03C4F88830D4F88830B3
:10B0000023F03003C4F88830D4F8883023F0C0032C
:10B01000C4F88830D4F8883023F44073C4F88830FA
:10B02000D4F8883023F44063C4F88830D4F88830EA
:10B0300023F44053C4F88830D4F8883023F44043D4
:10B04000C4F88830D4F8883023F44033C4F888300A
:10B05000D4F89C3023F00303C4F89C30D4F8883033
:10B0600023F0407343F00073C4F88830D4F888307C
:10B0700023F04063C4F88830D4F8883023F040537C
:10B0800043F00053C4F88830D4F8883023F04043AC
:10B0900043F00043C4F88830A36B43F48073A36388
:10B0A000A36B23F48073A363534B5A601A6822F492
:10B0B000FE4242F400521A601A6842F060021A60BE
:10B0C000494A1160D3F80435A26802F00C02082A3C
:10B0D00005D00C2A43D0424B042A18BF3B463E4AB7
:10B0E0009268C2F30312164496F88422D3406B6030
:10B0F000BDE8F081E8E6136823F00F0343F008038E
:10B100001360D4F8481B41F28830136803F00F0332
:10B11000082B3FF449AFD4F8483B5B1A8342F4D97B
:10B12000D2E6CB6803F0030188457FF47AAE013E96
:10B1300003F0F002B2EB061F7FF473AE03F4FE429D
:10B14000B2EB072F7FF46DAE03F07842B2F1805F6F
:10B150007FF467AE13F0CC6F3FF4A7AE61E6E16811
:10B16000E26801F003010229C2F3031202F10102B5
:10B1700008BF1B4BB3FBF2F3174AD168D268C2F386
:10B180004162C1F30621013201FB03F35200B3FB1C
:10B19000F2F3A4E798E6104A184C0021C3F80C1506
:10B1A000D4F8481B136843F48073136004E0D4F8A8
:10B1B000483B5B1A022B51D813685D05F7D55368DD
:10B1C000054D43F0804353600121D4F8480B916052
:10B1D00041F2883219E000BF0010024000127A00EC
:10B1E0000024F40000B4C4040020024060BC050840
:10B1F0007FBB22200407040000200040283C0020E0
:10B20000D4F8483B1B1A934228D8AB6803F00C03D0
:10B21000042BF5D11C4B1D4A5A6047F067FFE8B973
:10B220004FF480732B602B60D4F8481B184B04E05C
:10B23000D4F8482B521A022A10D81A6812F0007259
:10B24000F6D14FF480504FF0FF31D8609A61196207
:10B25000D3F8942042F40002C3F894204FF0E02386
:10B2600000221A615A619A6172B60A490A4A0B6849
:10B27000106823F0070343F001030B6080F3088894
:10B2800053689847FEE700BF000000200024F40048
:10B2900000100240000001400000FF1F064B9B68A9
:10B2A00003F00303022B04D0032B0CBF0320002068
:10B2B00070470120704700BF0010024010B550B128
:10B2C000A82808D0C02827D0D82827D0F0280CBF1D
:10B2D0000324002400E000240220FDF7DBFA0346EB
:10B2E0000120FDF7D7FA9C420AD128B10C4A936895
:10B2F00003F00303032B00D010BDD368DB07FBD49E
:10B300002046FBF765F80028F6D021460220FDF71D
:10B31000C9FA72B6FEF7B4FA0124DDE70224DBE7CE
:10B320000010024010B4EFF31182102383F312884F
:10B330000D4C0E4BD4F8BC134FF0E0200131C4F893
:10B34000BC138169C3F84C1B0021C3F8501B016971
:10B35000D2B282F31188D3F8482B5DF8044B013246
:10B36000C3F8482B704700BF302B0020283C00203A
:10B3700010B4EFF31183102282F312884FF0E02211
:10B38000DBB29469116911F4803F0E491EBF0120A0
:10B39000C1F8500B94690C4AD2F8BC03D1F8502B79
:10B3A00083F3118851F8841C02444FF47A7000FB37
:10B3B00001F31B1B5DF8044BB3FBF1F300FB023000
:10B3C000704700BF283C0020302B0020B0F1FF3F29
:10B3D00000F09B8003282DE9F04704460FDCDFF8DE
:10B3E00050A14FF02C0808FB00A8D8F8987A37B184
:10B3F0001E4698F8AD3A914603F0FF0213B10020C3
:10B40000BDE8F087012388F8AD3A0D4688F8AC2AEC
:10B41000FFF7AEFFC8F8BC0AFFF7AAFF7B68424AF5
:10B42000134043EA450343F0004343F4903380461E
:10B430007B606D00BB69980716D5C7F82890BB697B
:10B440005A0627D4BB69DB0656D52C23FA6937493F
:10B4500004FB03F39A4442F01002DAF8980AFA6106
:10B460001944FCF71FFCCAE7BB69D906EDD4FFF706
:10B470007FFF42F20F73A0EB08009842DADD2C2325
:10B4800004FB03F39A442949DAF8980A1944FCF7B3
:10B4900009FCB4E77B68244A134043EA06432B4384
:10B4A00043F00243089D43F410537B602E44BB6974
:10B4B00058070DD4BB69D906C7D4FFF759FF42F22C
:10B4C0000F73A0EB08009842D9DCBB695807F1D58F
:10B4D0007B6A05F8013BB542E9D1BB699A0616D4EF
:10B4E000BB69DB06B1D4FFF743FF42F20F72A0EB5A
:10B4F00008039342F1DDC2E7FFF73AFF42F20F7310
:10B50000A0EB080098429ADDB9E700207047FB697C
:10B510002C2202FB04AA43F020030022FB6101203D
:10B520008AF8AD2A6CE700BF008000FCDC35002003
:10B53000302B0020134B5B68C3F308030BBBEFF306
:10B540001183F3B910B4104A104C4FF0E02CD2F82C
:10B55000BC33DCF81800D2F8BC138B42F7D1D4F816
:10B560004C1B8842F3D854F8844C4FF47A7101FB99
:10B5700004F2121AB2FBF4F25DF8044B01FB032053
:10B580007047F5E600ED00E0302B0020283C00205D
:10B590002DE9F04FBD4F87B03B7805931BB90120D3
:10B5A00007B0BDE8F08F97F8F8350393B84BDFF894
:10B5B000F0B2D3F8BC33049307F566770BF5387A0D
:10B5C0004FF00009ABF65436039B994500F0F68026
:10B5D000BB69D7F80480D3E93354FFF7ABFF019080
:10B5E00096F83D0F96F83CCF04F10041393901221D
:10B5F000542805EB410102FA08F205EB4C0301D196
:10B60000A6F846CF994240F22D81B3F800E01EEA39
:10B61000020F00F01F81B3F802E01EEA020F00F0F3
:10B620003081B3F804E01EEA020F00F02C81B3F879
:10B6300006E01EEA020F03F10803E3D1A3EB050EB7
:10B6400099424FEA6E0E40F20D81A4EB0E04452C98
:10B6500028BF452403EB4404A34280F00A8100255F
:10B660009C46A8462946CDF80890B3F8009009EA10
:10B670000209894518BF02331AD1B3F8029009EACA
:10B680000209494518BF043312D1B3F8049009EAFE
:10B690000209494518BF06330AD1B3F8069009EAF2
:10B6A0000209494503F1080302D19C42DDD802E0BA
:10B6B0009C4200F2A480B8F1110FDDF8089040F22E
:10B6C000D880D8F1150200F1D4807249019CD1F8DC
:10B6D00058349E45D6F8503F38BFC1F858E4E11AB7
:10B6E000002918DB03F5F42303F590739C4284BF13
:10B6F00023460533C6F8503F664B6649D3F85834A5
:10B70000052B86BF053BDBB2002386F83C3F4FF09C
:10B71000FF33C1F858343AB105FA02F2C8F11408FF
:10B72000012505FA08F515435B4AC5F3C43302EB5E
:10B730008303D3F8701E05F01F0302EB8303D3F8D5
:10B74000703E43EA0133C5F3441102EB8101C5F3B6
:10B75000842502EB8502D1F8701ED2F8702E43EAE0
:10B76000011343EA022383EA132282EA1212D6F873
:10B770003C1E02F00F020F2A01F101015AD1B3F56C
:10B78000803F57D254284FEA13131ED0B3F5606F91
:10B79000C6F83C1E23D0AAF80C300599049A5846E6
:10B7A0000FF0CCFC09F10109B9F1080F0BF15C0BAA
:10B7B00007F120070AF1140A7FF406AF01230120E4
:10B7C00086F8383F07B0BDE8F08FB6F8402FC6F8CE
:10B7D0003C1E0132B3F5606FA6F8402FDBD12C4937
:10B7E00091F8652402EB420201EBC2024A4492F84E
:10B7F00075240D2ACFD180238AF81E30CDE7A3EB24
:10B800000C0C26494FEA6C0C0CF1010C81FB0C91DD
:10B81000A1EBEC710129B8BF01218D404FF0010C63
:10B82000884401390CFA01F10D4333F8021C9C469F
:10B8300011401AE7542804D1B6F8403F0133A6F866
:10B84000403FD6F8383EC6F83C1E0133C6F8383EB5
:10B850000021A3E70233A3EB050E99424FEA6E0ED7
:10B860003FF6F3AEBCF1000F03D00CF1FF3C86F8BD
:10B870003CCF542896D1B6F8423F0133A6F8423F58
:10B8800090E70433DAE60633D8E600BF381A002022
:10B89000302B00200000002060BC0508565555558F
:10B8A0007C47002070B51F4B93F8642493F86534EF
:10B8B0009A4231D11C484568002D10DD10F8086B04
:10B8C000002406B3037F012B20D0426913680134A2
:10B8D00043F00103A54200F1E4001360F1D1FFF74A
:10B8E00029FE124BD3F8984A002C0BDD03F678237F
